{
  "contractName": "Dex",
  "abi": [
    {
      "inputs": [],
      "stateMutability": "nonpayable",
      "type": "constructor"
    },
    {
      "anonymous": false,
      "inputs": [
        {
          "indexed": false,
          "internalType": "uint256",
          "name": "tradeId",
          "type": "uint256"
        },
        {
          "indexed": false,
          "internalType": "uint256",
          "name": "orderId",
          "type": "uint256"
        },
        {
          "indexed": true,
          "internalType": "bytes32",
          "name": "ticker",
          "type": "bytes32"
        },
        {
          "indexed": true,
          "internalType": "address",
          "name": "trader1",
          "type": "address"
        },
        {
          "indexed": true,
          "internalType": "address",
          "name": "trader2",
          "type": "address"
        },
        {
          "indexed": false,
          "internalType": "uint256",
          "name": "amount",
          "type": "uint256"
        },
        {
          "indexed": false,
          "internalType": "uint256",
          "name": "price",
          "type": "uint256"
        },
        {
          "indexed": false,
          "internalType": "uint256",
          "name": "date",
          "type": "uint256"
        }
      ],
      "name": "NewTrade",
      "type": "event"
    },
    {
      "inputs": [],
      "name": "admin",
      "outputs": [
        {
          "internalType": "address",
          "name": "",
          "type": "address"
        }
      ],
      "stateMutability": "view",
      "type": "function",
      "constant": true
    },
    {
      "inputs": [],
      "name": "nextOrderId",
      "outputs": [
        {
          "internalType": "uint256",
          "name": "",
          "type": "uint256"
        }
      ],
      "stateMutability": "view",
      "type": "function",
      "constant": true
    },
    {
      "inputs": [],
      "name": "nextTokenId",
      "outputs": [
        {
          "internalType": "bytes32",
          "name": "",
          "type": "bytes32"
        }
      ],
      "stateMutability": "view",
      "type": "function",
      "constant": true
    },
    {
      "inputs": [],
      "name": "nextTradeId",
      "outputs": [
        {
          "internalType": "uint256",
          "name": "",
          "type": "uint256"
        }
      ],
      "stateMutability": "view",
      "type": "function",
      "constant": true
    },
    {
      "inputs": [
        {
          "internalType": "bytes32",
          "name": "",
          "type": "bytes32"
        },
        {
          "internalType": "uint256",
          "name": "",
          "type": "uint256"
        },
        {
          "internalType": "uint256",
          "name": "",
          "type": "uint256"
        }
      ],
      "name": "orderBook",
      "outputs": [
        {
          "internalType": "uint256",
          "name": "id",
          "type": "uint256"
        },
        {
          "internalType": "address",
          "name": "trader",
          "type": "address"
        },
        {
          "internalType": "enum Dex.Side",
          "name": "side",
          "type": "uint8"
        },
        {
          "internalType": "bytes32",
          "name": "ticker",
          "type": "bytes32"
        },
        {
          "internalType": "uint256",
          "name": "amount",
          "type": "uint256"
        },
        {
          "internalType": "uint256",
          "name": "filled",
          "type": "uint256"
        },
        {
          "internalType": "uint256",
          "name": "price",
          "type": "uint256"
        },
        {
          "internalType": "uint256",
          "name": "date",
          "type": "uint256"
        }
      ],
      "stateMutability": "view",
      "type": "function",
      "constant": true
    },
    {
      "inputs": [
        {
          "internalType": "uint256",
          "name": "",
          "type": "uint256"
        }
      ],
      "name": "tokenList",
      "outputs": [
        {
          "internalType": "bytes32",
          "name": "",
          "type": "bytes32"
        }
      ],
      "stateMutability": "view",
      "type": "function",
      "constant": true
    },
    {
      "inputs": [
        {
          "internalType": "bytes32",
          "name": "",
          "type": "bytes32"
        }
      ],
      "name": "tokens",
      "outputs": [
        {
          "internalType": "bytes32",
          "name": "ticker",
          "type": "bytes32"
        },
        {
          "internalType": "address",
          "name": "tokenAddress",
          "type": "address"
        }
      ],
      "stateMutability": "view",
      "type": "function",
      "constant": true
    },
    {
      "inputs": [
        {
          "internalType": "address",
          "name": "",
          "type": "address"
        },
        {
          "internalType": "bytes32",
          "name": "",
          "type": "bytes32"
        }
      ],
      "name": "traderBalances",
      "outputs": [
        {
          "internalType": "uint256",
          "name": "",
          "type": "uint256"
        }
      ],
      "stateMutability": "view",
      "type": "function",
      "constant": true
    },
    {
      "inputs": [
        {
          "internalType": "bytes32",
          "name": "ticker",
          "type": "bytes32"
        },
        {
          "internalType": "enum Dex.Side",
          "name": "side",
          "type": "uint8"
        }
      ],
      "name": "getOrders",
      "outputs": [
        {
          "components": [
            {
              "internalType": "uint256",
              "name": "id",
              "type": "uint256"
            },
            {
              "internalType": "address",
              "name": "trader",
              "type": "address"
            },
            {
              "internalType": "enum Dex.Side",
              "name": "side",
              "type": "uint8"
            },
            {
              "internalType": "bytes32",
              "name": "ticker",
              "type": "bytes32"
            },
            {
              "internalType": "uint256",
              "name": "amount",
              "type": "uint256"
            },
            {
              "internalType": "uint256",
              "name": "filled",
              "type": "uint256"
            },
            {
              "internalType": "uint256",
              "name": "price",
              "type": "uint256"
            },
            {
              "internalType": "uint256",
              "name": "date",
              "type": "uint256"
            }
          ],
          "internalType": "struct Dex.Order[]",
          "name": "",
          "type": "tuple[]"
        }
      ],
      "stateMutability": "view",
      "type": "function",
      "constant": true
    },
    {
      "inputs": [],
      "name": "getTokens",
      "outputs": [
        {
          "components": [
            {
              "internalType": "bytes32",
              "name": "ticker",
              "type": "bytes32"
            },
            {
              "internalType": "address",
              "name": "tokenAddress",
              "type": "address"
            }
          ],
          "internalType": "struct Dex.Token[]",
          "name": "",
          "type": "tuple[]"
        }
      ],
      "stateMutability": "view",
      "type": "function",
      "constant": true
    },
    {
      "inputs": [
        {
          "internalType": "bytes32",
          "name": "_ticker",
          "type": "bytes32"
        },
        {
          "internalType": "address",
          "name": "_tokenAddress",
          "type": "address"
        }
      ],
      "name": "addToken",
      "outputs": [],
      "stateMutability": "nonpayable",
      "type": "function"
    },
    {
      "inputs": [
        {
          "internalType": "uint256",
          "name": "amount",
          "type": "uint256"
        },
        {
          "internalType": "bytes32",
          "name": "ticker",
          "type": "bytes32"
        }
      ],
      "name": "deposit",
      "outputs": [],
      "stateMutability": "nonpayable",
      "type": "function"
    },
    {
      "inputs": [
        {
          "internalType": "uint256",
          "name": "amount",
          "type": "uint256"
        },
        {
          "internalType": "bytes32",
          "name": "ticker",
          "type": "bytes32"
        }
      ],
      "name": "withdraw",
      "outputs": [],
      "stateMutability": "nonpayable",
      "type": "function"
    },
    {
      "inputs": [
        {
          "internalType": "bytes32",
          "name": "ticker",
          "type": "bytes32"
        },
        {
          "internalType": "uint256",
          "name": "amount",
          "type": "uint256"
        },
        {
          "internalType": "uint256",
          "name": "price",
          "type": "uint256"
        },
        {
          "internalType": "enum Dex.Side",
          "name": "side",
          "type": "uint8"
        }
      ],
      "name": "createLimitOrder",
      "outputs": [],
      "stateMutability": "nonpayable",
      "type": "function"
    },
    {
      "inputs": [
        {
          "internalType": "bytes32",
          "name": "ticker",
          "type": "bytes32"
        },
        {
          "internalType": "uint256",
          "name": "amount",
          "type": "uint256"
        },
        {
          "internalType": "enum Dex.Side",
          "name": "side",
          "type": "uint8"
        }
      ],
      "name": "createMarketOrder",
      "outputs": [],
      "stateMutability": "nonpayable",
      "type": "function"
    }
  ],
  "bytecode": "0x608060405234801561001057600080fd5b50336000806101000a81548173ffffffffffffffffffffffffffffffffffffffff021916908373ffffffffffffffffffffffffffffffffffffffff1602179055506133d2806100606000396000f3fe608060405234801561001057600080fd5b50600436106100f55760003560e01c8063904194a311610097578063aa6ca80811610066578063aa6ca808146102a0578063c9630cb0146102be578063d9c0c950146102da578063f851a440146102f6576100f5565b8063904194a3146102075780639776aacf146102385780639ead722214610254578063a8d2021a14610284576100f5565b806372ce957e116100d357806372ce957e1461017f57806375794a3c146101af5780637f2c6246146101cd578063813ad083146101e9576100f5565b80630bb431b6146100fa5780632a58b3301461013157806346e9658b1461014f575b600080fd5b610114600480360381019061010f9190612876565b610314565b604051610128989796959493929190613122565b60405180910390f35b6101396103b0565b6040516101469190613107565b60405180910390f35b610169600480360381019061016491906127eb565b6103b6565b6040516101769190612f3f565b60405180910390f35b61019960048036038101906101949190612721565b610505565b6040516101a69190613107565b60405180910390f35b6101b761052a565b6040516101c49190612f83565b60405180910390f35b6101e760048036038101906101e29190612827565b610530565b005b6101f16115e5565b6040516101fe9190613107565b60405180910390f35b610221600480360381019061021c9190612786565b6115eb565b60405161022f929190612f9e565b60405180910390f35b610252600480360381019061024d91906127af565b61162f565b005b61026e60048036038101906102699190612928565b61177c565b60405161027b9190612f83565b60405180910390f35b61029e60048036038101906102999190612951565b61179d565b005b6102a8611a57565b6040516102b59190612f61565b60405180910390f35b6102d860048036038101906102d39190612951565b611b94565b005b6102f460048036038101906102ef91906128c5565b611d15565b005b6102fe6124e3565b60405161030b9190612ec4565b60405180910390f35b6006602052826000526040600020602052816000526040600020818154811061033957fe5b906000526020600020906007020160009250925050508060000154908060010160009054906101000a900473ffffffffffffffffffffffffffffffffffffffff16908060010160149054906101000a900460ff16908060020154908060030154908060040154908060050154908060060154905088565b60015481565b60606006600084815260200190815260200160002060008360018111156103d957fe5b8152602001908152602001600020805480602002602001604051908101604052809291908181526020016000905b828210156104f9578382906000526020600020906007020160405180610100016040529081600082015481526020016001820160009054906101000a900473ffffffffffffffffffffffffffffffffffffffff1673ffffffffffffffffffffffffffffffffffffffff1673ffffffffffffffffffffffffffffffffffffffff1681526020016001820160149054906101000a900460ff1660018111156104a957fe5b60018111156104b457fe5b81526020016002820154815260200160038201548152602001600482015481526020016005820154815260200160068201548152505081526020019060010190610407565b50505050905092915050565b6005602052816000526040600020602052806000526040600020600091509150505481565b60035481565b82600073ffffffffffffffffffffffffffffffffffffffff166004600083815260200190815260200160002060010160009054906101000a900473ffffffffffffffffffffffffffffffffffffffff1673ffffffffffffffffffffffffffffffffffffffff1614156105d7576040517f08c379a00000000000000000000000000000000000000000000000000000000081526004016105ce906130c7565b60405180910390fd5b837f444149000000000000000000000000000000000000000000000000000000000081141561063b576040517f08c379a000000000000000000000000000000000000000000000000000000000815260040161063290613027565b60405180910390fd5b60018081111561064757fe5b83600181111561065357fe5b14156106ed5783600560003373ffffffffffffffffffffffffffffffffffffffff1673ffffffffffffffffffffffffffffffffffffffff16815260200190815260200160002060008781526020019081526020016000205410156106ec576040517f08c379a00000000000000000000000000000000000000000000000000000000081526004016106e390613067565b60405180910390fd5b5b600060066000878152602001908152602001600020600080600181111561071057fe5b86600181111561071c57fe5b1461072857600061072b565b60015b600181111561073657fe5b815260200190815260200160002090506000808690505b8280549050821080156107605750600081115b156113b45760006107b484848154811061077657fe5b90600052602060002090600702016004015485858154811061079457fe5b90600052602060002090600702016003015461250790919063ffffffff16565b905060008183116107c557826107c7565b815b90506107dc818461250790919063ffffffff16565b925061080e818686815481106107ee57fe5b90600052602060002090600702016004015461255790919063ffffffff16565b85858154811061081a57fe5b9060005260206000209060070201600401819055503373ffffffffffffffffffffffffffffffffffffffff1685858154811061085257fe5b906000526020600020906007020160010160009054906101000a900473ffffffffffffffffffffffffffffffffffffffff1673ffffffffffffffffffffffffffffffffffffffff168b7fdb0c486e680ba8026643e6a85f8d157b5e7bcd4b32b54d564542570a9eb204166002548989815481106108cb57fe5b906000526020600020906007020160000154868b8b815481106108ea57fe5b9060005260206000209060070201600501544260405161090e9594939291906131a0565b60405180910390a460018081111561092257fe5b88600181111561092e57fe5b1415610de35761099781600560003373ffffffffffffffffffffffffffffffffffffffff1673ffffffffffffffffffffffffffffffffffffffff16815260200190815260200160002060008d81526020019081526020016000205461250790919063ffffffff16565b600560003373ffffffffffffffffffffffffffffffffffffffff1673ffffffffffffffffffffffffffffffffffffffff16815260200190815260200160002060008c815260200190815260200160002081905550610a9d610a1e8686815481106109fd57fe5b906000526020600020906007020160050154836125ac90919063ffffffff16565b600560003373ffffffffffffffffffffffffffffffffffffffff1673ffffffffffffffffffffffffffffffffffffffff16815260200190815260200160002060007f444149000000000000000000000000000000000000000000000000000000000081526020019081526020016000205461255790919063ffffffff16565b600560003373ffffffffffffffffffffffffffffffffffffffff1673ffffffffffffffffffffffffffffffffffffffff16815260200190815260200160002060007f4441490000000000000000000000000000000000000000000000000000000000815260200190815260200160002081905550610bb18160056000888881548110610b2557fe5b906000526020600020906007020160010160009054906101000a900473ffffffffffffffffffffffffffffffffffffffff1673ffffffffffffffffffffffffffffffffffffffff1673ffffffffffffffffffffffffffffffffffffffff16815260200190815260200160002060008d81526020019081526020016000205461255790919063ffffffff16565b60056000878781548110610bc157fe5b906000526020600020906007020160010160009054906101000a900473ffffffffffffffffffffffffffffffffffffffff1673ffffffffffffffffffffffffffffffffffffffff1673ffffffffffffffffffffffffffffffffffffffff16815260200190815260200160002060008c815260200190815260200160002081905550610d31610c75868681548110610c5457fe5b906000526020600020906007020160050154836125ac90919063ffffffff16565b60056000888881548110610c8557fe5b906000526020600020906007020160010160009054906101000a900473ffffffffffffffffffffffffffffffffffffffff1673ffffffffffffffffffffffffffffffffffffffff1673ffffffffffffffffffffffffffffffffffffffff16815260200190815260200160002060007f444149000000000000000000000000000000000000000000000000000000000081526020019081526020016000205461250790919063ffffffff16565b60056000878781548110610d4157fe5b906000526020600020906007020160010160009054906101000a900473ffffffffffffffffffffffffffffffffffffffff1673ffffffffffffffffffffffffffffffffffffffff1673ffffffffffffffffffffffffffffffffffffffff16815260200190815260200160002060007f44414900000000000000000000000000000000000000000000000000000000008152602001908152602001600020819055505b60006001811115610df057fe5b886001811115610dfc57fe5b141561139357610e32858581548110610e1157fe5b906000526020600020906007020160050154826125ac90919063ffffffff16565b600560003373ffffffffffffffffffffffffffffffffffffffff1673ffffffffffffffffffffffffffffffffffffffff16815260200190815260200160002060007f44414900000000000000000000000000000000000000000000000000000000008152602001908152602001600020541015610ee4576040517f08c379a0000000000000000000000000000000000000000000000000000000008152600401610edb906130e7565b60405180910390fd5b610f4781600560003373ffffffffffffffffffffffffffffffffffffffff1673ffffffffffffffffffffffffffffffffffffffff16815260200190815260200160002060008d81526020019081526020016000205461255790919063ffffffff16565b600560003373ffffffffffffffffffffffffffffffffffffffff1673ffffffffffffffffffffffffffffffffffffffff16815260200190815260200160002060008c81526020019081526020016000208190555061104d610fce868681548110610fad57fe5b906000526020600020906007020160050154836125ac90919063ffffffff16565b600560003373ffffffffffffffffffffffffffffffffffffffff1673ffffffffffffffffffffffffffffffffffffffff16815260200190815260200160002060007f444149000000000000000000000000000000000000000000000000000000000081526020019081526020016000205461250790919063ffffffff16565b600560003373ffffffffffffffffffffffffffffffffffffffff1673ffffffffffffffffffffffffffffffffffffffff16815260200190815260200160002060007f444149000000000000000000000000000000000000000000000000000000000081526020019081526020016000208190555061116181600560008888815481106110d557fe5b906000526020600020906007020160010160009054906101000a900473ffffffffffffffffffffffffffffffffffffffff1673ffffffffffffffffffffffffffffffffffffffff1673ffffffffffffffffffffffffffffffffffffffff16815260200190815260200160002060008d81526020019081526020016000205461250790919063ffffffff16565b6005600087878154811061117157fe5b906000526020600020906007020160010160009054906101000a900473ffffffffffffffffffffffffffffffffffffffff1673ffffffffffffffffffffffffffffffffffffffff1673ffffffffffffffffffffffffffffffffffffffff16815260200190815260200160002060008c8152602001908152602001600020819055506112e161122586868154811061120457fe5b906000526020600020906007020160050154836125ac90919063ffffffff16565b6005600088888154811061123557fe5b906000526020600020906007020160010160009054906101000a900473ffffffffffffffffffffffffffffffffffffffff1673ffffffffffffffffffffffffffffffffffffffff1673ffffffffffffffffffffffffffffffffffffffff16815260200190815260200160002060007f444149000000000000000000000000000000000000000000000000000000000081526020019081526020016000205461255790919063ffffffff16565b600560008787815481106112f157fe5b906000526020600020906007020160010160009054906101000a900473ffffffffffffffffffffffffffffffffffffffff1673ffffffffffffffffffffffffffffffffffffffff1673ffffffffffffffffffffffffffffffffffffffff16815260200190815260200160002060007f44414900000000000000000000000000000000000000000000000000000000008152602001908152602001600020819055505b6002600081548092919060010191905055508380600101945050505061074d565b600091505b82805490508210801561140557508282815481106113d357fe5b9060005260206000209060070201600301548383815481106113f157fe5b906000526020600020906007020160040154145b156115db5760008290505b600184805490500381101561153f5783600182018154811061142e57fe5b906000526020600020906007020184828154811061144857fe5b9060005260206000209060070201600082015481600001556001820160009054906101000a900473ffffffffffffffffffffffffffffffffffffffff168160010160006101000a81548173ffffffffffffffffffffffffffffffffffffffff021916908373ffffffffffffffffffffffffffffffffffffffff1602179055506001820160149054906101000a900460ff168160010160146101000a81548160ff021916908360018111156114f857fe5b021790555060028201548160020155600382015481600301556004820154816004015560058201548160050155600682015481600601559050508080600101915050611410565b508280548061154a57fe5b60019003818190600052602060002090600702016000808201600090556001820160006101000a81549073ffffffffffffffffffffffffffffffffffffffff02191690556001820160146101000a81549060ff0219169055600282016000905560038201600090556004820160009055600582016000905560068201600090555050905581806001019250506113b9565b5050505050505050565b60025481565b60046020528060005260406000206000915090508060000154908060010160009054906101000a900473ffffffffffffffffffffffffffffffffffffffff16905082565b60008054906101000a900473ffffffffffffffffffffffffffffffffffffffff1673ffffffffffffffffffffffffffffffffffffffff163373ffffffffffffffffffffffffffffffffffffffff16146116bd576040517f08c379a00000000000000000000000000000000000000000000000000000000081526004016116b490613087565b60405180910390fd5b60405180604001604052808381526020018273ffffffffffffffffffffffffffffffffffffffff16815250600460008481526020019081526020016000206000820151816000015560208201518160010160006101000a81548173ffffffffffffffffffffffffffffffffffffffff021916908373ffffffffffffffffffffffffffffffffffffffff16021790555090505060078290806001815401808255809150506001900390600052602060002001600090919091909150555050565b6007818154811061178957fe5b906000526020600020016000915090505481565b80600073ffffffffffffffffffffffffffffffffffffffff166004600083815260200190815260200160002060010160009054906101000a900473ffffffffffffffffffffffffffffffffffffffff1673ffffffffffffffffffffffffffffffffffffffff161415611844576040517f08c379a000000000000000000000000000000000000000000000000000000000815260040161183b906130c7565b60405180910390fd5b82600560003373ffffffffffffffffffffffffffffffffffffffff1673ffffffffffffffffffffffffffffffffffffffff16815260200190815260200160002060008481526020019081526020016000205410156118d7576040517f08c379a00000000000000000000000000000000000000000000000000000000081526004016118ce90613007565b60405180910390fd5b6004600083815260200190815260200160002060010160009054906101000a900473ffffffffffffffffffffffffffffffffffffffff1673ffffffffffffffffffffffffffffffffffffffff1663a9059cbb33856040518363ffffffff1660e01b8152600401611948929190612f16565b602060405180830381600087803b15801561196257600080fd5b505af1158015611976573d6000803e3d6000fd5b505050506040513d601f19601f8201168201806040525081019061199a919061275d565b506119fe83600560003373ffffffffffffffffffffffffffffffffffffffff1673ffffffffffffffffffffffffffffffffffffffff16815260200190815260200160002060008581526020019081526020016000205461250790919063ffffffff16565b600560003373ffffffffffffffffffffffffffffffffffffffff1673ffffffffffffffffffffffffffffffffffffffff168152602001908152602001600020600084815260200190815260200160002081905550505050565b60608060078054905067ffffffffffffffff81118015611a7657600080fd5b50604051908082528060200260200182016040528015611ab057816020015b611a9d61261c565b815260200190600190039081611a955790505b50905060005b600780549050811015611b8c5760405180604001604052806004600060078581548110611adf57fe5b906000526020600020015481526020019081526020016000206000015481526020016004600060078581548110611b1257fe5b9060005260206000200154815260200190815260200160002060010160009054906101000a900473ffffffffffffffffffffffffffffffffffffffff1673ffffffffffffffffffffffffffffffffffffffff16815250828281518110611b7457fe5b60200260200101819052508080600101915050611ab6565b508091505090565b6004600082815260200190815260200160002060010160009054906101000a900473ffffffffffffffffffffffffffffffffffffffff1673ffffffffffffffffffffffffffffffffffffffff166323b872dd3330856040518463ffffffff1660e01b8152600401611c0793929190612edf565b602060405180830381600087803b158015611c2157600080fd5b505af1158015611c35573d6000803e3d6000fd5b505050506040513d601f19601f82011682018060405250810190611c59919061275d565b50611cbd82600560003373ffffffffffffffffffffffffffffffffffffffff1673ffffffffffffffffffffffffffffffffffffffff16815260200190815260200160002060008481526020019081526020016000205461255790919063ffffffff16565b600560003373ffffffffffffffffffffffffffffffffffffffff1673ffffffffffffffffffffffffffffffffffffffff1681526020019081526020016000206000838152602001908152602001600020819055505050565b837f4441490000000000000000000000000000000000000000000000000000000000811415611d79576040517f08c379a0000000000000000000000000000000000000000000000000000000008152600401611d7090613027565b60405180910390fd5b84600073ffffffffffffffffffffffffffffffffffffffff166004600083815260200190815260200160002060010160009054906101000a900473ffffffffffffffffffffffffffffffffffffffff1673ffffffffffffffffffffffffffffffffffffffff161415611e20576040517f08c379a0000000000000000000000000000000000000000000000000000000008152600401611e17906130c7565b60405180910390fd5b600180811115611e2c57fe5b836001811115611e3857fe5b1415611ed65784600560003373ffffffffffffffffffffffffffffffffffffffff1673ffffffffffffffffffffffffffffffffffffffff1681526020019081526020016000206000888152602001908152602001600020541015611ed1576040517f08c379a0000000000000000000000000000000000000000000000000000000008152600401611ec890613067565b60405180910390fd5b611f9c565b611ee984866125ac90919063ffffffff16565b600560003373ffffffffffffffffffffffffffffffffffffffff1673ffffffffffffffffffffffffffffffffffffffff16815260200190815260200160002060007f44414900000000000000000000000000000000000000000000000000000000008152602001908152602001600020541015611f9b576040517f08c379a0000000000000000000000000000000000000000000000000000000008152600401611f9290613047565b60405180910390fd5b5b6000600660008881526020019081526020016000206000856001811115611fbf57fe5b815260200190815260200160002090508060405180610100016040528060015481526020013373ffffffffffffffffffffffffffffffffffffffff16815260200186600181111561200c57fe5b8152602001898152602001888152602001600081526020018781526020014281525090806001815401808255809150506001900390600052602060002090600702016000909190919091506000820151816000015560208201518160010160006101000a81548173ffffffffffffffffffffffffffffffffffffffff021916908373ffffffffffffffffffffffffffffffffffffffff16021790555060408201518160010160146101000a81548160ff021916908360018111156120cc57fe5b0217905550606082015181600201556080820151816003015560a0820151816004015560c0820151816005015560e0820151816006015550506000600182805490500390505b60008110156124c7576000600181111561212857fe5b85600181111561213457fe5b14801561217d575081818154811061214857fe5b90600052602060002090600702016005015482600183038154811061216957fe5b906000526020600020906007020160050154115b15612187576124c7565b60018081111561219357fe5b85600181111561219f57fe5b1480156121e857508181815481106121b357fe5b9060005260206000209060070201600501548260018303815481106121d457fe5b906000526020600020906007020160050154105b156121f2576124c7565b6121fa61264f565b82600183038154811061220957fe5b906000526020600020906007020160405180610100016040529081600082015481526020016001820160009054906101000a900473ffffffffffffffffffffffffffffffffffffffff1673ffffffffffffffffffffffffffffffffffffffff1673ffffffffffffffffffffffffffffffffffffffff1681526020016001820160149054906101000a900460ff1660018111156122a157fe5b60018111156122ac57fe5b81526020016002820154815260200160038201548152602001600482015481526020016005820154815260200160068201548152505090508282815481106122f057fe5b906000526020600020906007020183600184038154811061230d57fe5b9060005260206000209060070201600082015481600001556001820160009054906101000a900473ffffffffffffffffffffffffffffffffffffffff168160010160006101000a81548173ffffffffffffffffffffffffffffffffffffffff021916908373ffffffffffffffffffffffffffffffffffffffff1602179055506001820160149054906101000a900460ff168160010160146101000a81548160ff021916908360018111156123bd57fe5b021790555060028201548160020155600382015481600301556004820154816004015560058201548160050155600682015481600601559050508083838154811061240457fe5b90600052602060002090600702016000820151816000015560208201518160010160006101000a81548173ffffffffffffffffffffffffffffffffffffffff021916908373ffffffffffffffffffffffffffffffffffffffff16021790555060408201518160010160146101000a81548160ff0219169083600181111561248757fe5b0217905550606082015181600201556080820151816003015560a0820151816004015560c0820151816005015560e0820151816006015590505050612112565b6001600081548092919060010191905055505050505050505050565b60008054906101000a900473ffffffffffffffffffffffffffffffffffffffff1681565b60008282111561254c576040517f08c379a000000000000000000000000000000000000000000000000000000000815260040161254390612fe7565b60405180910390fd5b818303905092915050565b6000808284019050838110156125a2576040517f08c379a000000000000000000000000000000000000000000000000000000000815260040161259990612fc7565b60405180910390fd5b8091505092915050565b6000808314156125bf5760009050612616565b60008284029050828482816125d057fe5b0414612611576040517f08c379a0000000000000000000000000000000000000000000000000000000008152600401612608906130a7565b60405180910390fd5b809150505b92915050565b604051806040016040528060008019168152602001600073ffffffffffffffffffffffffffffffffffffffff1681525090565b60405180610100016040528060008152602001600073ffffffffffffffffffffffffffffffffffffffff1681526020016000600181111561268c57fe5b815260200160008019168152602001600081526020016000815260200160008152602001600081525090565b6000813590506126c781613330565b92915050565b6000815190506126dc81613347565b92915050565b6000813590506126f18161335e565b92915050565b60008135905061270681613375565b92915050565b60008135905061271b81613385565b92915050565b6000806040838503121561273457600080fd5b6000612742858286016126b8565b9250506020612753858286016126e2565b9150509250929050565b60006020828403121561276f57600080fd5b600061277d848285016126cd565b91505092915050565b60006020828403121561279857600080fd5b60006127a6848285016126e2565b91505092915050565b600080604083850312156127c257600080fd5b60006127d0858286016126e2565b92505060206127e1858286016126b8565b9150509250929050565b600080604083850312156127fe57600080fd5b600061280c858286016126e2565b925050602061281d858286016126f7565b9150509250929050565b60008060006060848603121561283c57600080fd5b600061284a868287016126e2565b935050602061285b8682870161270c565b925050604061286c868287016126f7565b9150509250925092565b60008060006060848603121561288b57600080fd5b6000612899868287016126e2565b93505060206128aa8682870161270c565b92505060406128bb8682870161270c565b9150509250925092565b600080600080608085870312156128db57600080fd5b60006128e9878288016126e2565b94505060206128fa8782880161270c565b935050604061290b8782880161270c565b925050606061291c878288016126f7565b91505092959194509250565b60006020828403121561293a57600080fd5b60006129488482850161270c565b91505092915050565b6000806040838503121561296457600080fd5b60006129728582860161270c565b9250506020612983858286016126e2565b9150509250929050565b60006129998383612dd5565b6101008301905092915050565b60006129b28383612e77565b60408301905092915050565b6129c7816132db565b82525050565b6129d681613276565b82525050565b6129e581613276565b82525050565b60006129f682613213565b612a008185613243565b9350612a0b836131f3565b8060005b83811015612a3c578151612a23888261298d565b9750612a2e83613229565b925050600181019050612a0f565b5085935050505092915050565b6000612a548261321e565b612a5e8185613254565b9350612a6983613203565b8060005b83811015612a9a578151612a8188826129a6565b9750612a8c83613236565b925050600181019050612a6d565b5085935050505092915050565b612ab081613294565b82525050565b612abf81613294565b82525050565b612ace816132ed565b82525050565b612add816132ed565b82525050565b6000612af0601b83613265565b91507f536166654d6174683a206164646974696f6e206f766572666c6f7700000000006000830152602082019050919050565b6000612b30601e83613265565b91507f536166654d6174683a207375627472616374696f6e206f766572666c6f7700006000830152602082019050919050565b6000612b70602783613265565b91507f496e73756666696369656e7420746f6b656e7320666f7220746869732077697460008301527f6864726177616c000000000000000000000000000000000000000000000000006020830152604082019050919050565b6000612bd6601083613265565b91507f63616e6e6f7420747261646520444149000000000000000000000000000000006000830152602082019050919050565b6000612c16601683613265565b91507f4441492062616c616e636520697320746f6f206c6f77000000000000000000006000830152602082019050919050565b6000612c56601883613265565b91507f746f6b656e2062616c616e636520697320746f6f206c6f7700000000000000006000830152602082019050919050565b6000612c96601683613265565b91507f4f6e6c792041646d696e2063616e20646f2074686973000000000000000000006000830152602082019050919050565b6000612cd6602183613265565b91507f536166654d6174683a206d756c7469706c69636174696f6e206f766572666c6f60008301527f77000000000000000000000000000000000000000000000000000000000000006020830152604082019050919050565b6000612d3c601983613265565b91507f7468697320746f6b656e20646f6573206e6f74206578697374000000000000006000830152602082019050919050565b6000612d7c602183613265565b91507f6461692062616c616e636520746f6f206c6f7720666f7220425559207472616460008301527f65000000000000000000000000000000000000000000000000000000000000006020830152604082019050919050565b61010082016000820151612dec6000850182612ea6565b506020820151612dff60208501826129cd565b506040820151612e126040850182612ac5565b506060820151612e256060850182612aa7565b506080820151612e386080850182612ea6565b5060a0820151612e4b60a0850182612ea6565b5060c0820151612e5e60c0850182612ea6565b5060e0820151612e7160e0850182612ea6565b50505050565b604082016000820151612e8d6000850182612aa7565b506020820151612ea060208501826129cd565b50505050565b612eaf816132d1565b82525050565b612ebe816132d1565b82525050565b6000602082019050612ed960008301846129dc565b92915050565b6000606082019050612ef460008301866129be565b612f0160208301856129dc565b612f0e6040830184612eb5565b949350505050565b6000604082019050612f2b60008301856129be565b612f386020830184612eb5565b9392505050565b60006020820190508181036000830152612f5981846129eb565b905092915050565b60006020820190508181036000830152612f7b8184612a49565b905092915050565b6000602082019050612f986000830184612ab6565b92915050565b6000604082019050612fb36000830185612ab6565b612fc060208301846129dc565b9392505050565b60006020820190508181036000830152612fe081612ae3565b9050919050565b6000602082019050818103600083015261300081612b23565b9050919050565b6000602082019050818103600083015261302081612b63565b9050919050565b6000602082019050818103600083015261304081612bc9565b9050919050565b6000602082019050818103600083015261306081612c09565b9050919050565b6000602082019050818103600083015261308081612c49565b9050919050565b600060208201905081810360008301526130a081612c89565b9050919050565b600060208201905081810360008301526130c081612cc9565b9050919050565b600060208201905081810360008301526130e081612d2f565b9050919050565b6000602082019050818103600083015261310081612d6f565b9050919050565b600060208201905061311c6000830184612eb5565b92915050565b600061010082019050613138600083018b612eb5565b613145602083018a6129dc565b6131526040830189612ad4565b61315f6060830188612ab6565b61316c6080830187612eb5565b61317960a0830186612eb5565b61318660c0830185612eb5565b61319360e0830184612eb5565b9998505050505050505050565b600060a0820190506131b56000830188612eb5565b6131c26020830187612eb5565b6131cf6040830186612eb5565b6131dc6060830185612eb5565b6131e96080830184612eb5565b9695505050505050565b6000819050602082019050919050565b6000819050602082019050919050565b600081519050919050565b600081519050919050565b6000602082019050919050565b6000602082019050919050565b600082825260208201905092915050565b600082825260208201905092915050565b600082825260208201905092915050565b6000613281826132b1565b9050919050565b60008115159050919050565b6000819050919050565b60008190506132ac82613323565b919050565b600073ffffffffffffffffffffffffffffffffffffffff82169050919050565b6000819050919050565b60006132e6826132ff565b9050919050565b60006132f88261329e565b9050919050565b600061330a82613311565b9050919050565b600061331c826132b1565b9050919050565b6002811061332d57fe5b50565b61333981613276565b811461334457600080fd5b50565b61335081613288565b811461335b57600080fd5b50565b61336781613294565b811461337257600080fd5b50565b6002811061338257600080fd5b50565b61338e816132d1565b811461339957600080fd5b5056fea26469706673582212205959f504ba675496207bf1664ac084fc646c68c6df568c709d1745dc2b48090f64736f6c634300060c0033",
  "immutableReferences": {},
  "source": "// SPDX-License-Identifier: GPL-3.0\r\npragma solidity ^0.6.3;\r\npragma experimental ABIEncoderV2;\r\n\r\nimport '@openzeppelin/contracts/token/ERC20/IERC20.sol';\r\nimport '@openzeppelin/contracts/math/SafeMath.sol';\r\n\r\ncontract Dex {\r\n    using SafeMath for uint;\r\n    // for limit orders\r\n    enum Side {\r\n        BUY,\r\n        SELL\r\n    }\r\n    struct Token{\r\n        bytes32 ticker;\r\n        address tokenAddress;\r\n    }\r\n    struct Order{\r\n        uint id;\r\n        address trader;\r\n        Side side;\r\n        bytes32 ticker;\r\n        uint amount;\r\n        uint filled;\r\n        uint price;\r\n        uint date;\r\n    }\r\n    event NewTrade(\r\n        uint tradeId,\r\n        uint orderId,\r\n        bytes32 indexed ticker,\r\n        address indexed trader1,\r\n        address indexed trader2,\r\n        uint amount,\r\n        uint price,\r\n        uint date\r\n    );\r\n    address public admin;\r\n    uint public nextOrderId;\r\n    uint public nextTradeId;\r\n    bytes32 public nextTokenId;\r\n    bytes32 constant DAI = bytes32('DAI');\r\n\r\n    mapping(bytes32 => Token) public tokens;\r\n    mapping(address => mapping(bytes32 => uint)) public traderBalances;//trader -> pointer to list of tokens -> balance of each token\r\n    // order book - uint is cast - 0=buy,1=sell\r\n    // bytes32 is always the token\r\n    // each token will have an array of limit orders for buy and an array of limit orders for sell\r\n    mapping(bytes32 => mapping(uint => Order[])) public orderBook;\r\n    bytes32[] public tokenList;\r\n\r\n    modifier onlyAdmin(){\r\n        require(msg.sender == admin, 'Only Admin can do this');\r\n        _;\r\n    }\r\n    modifier tokenExists(bytes32 _ticker){\r\n        require(tokens[_ticker].tokenAddress != address(0), 'this token does not exist');\r\n        _;\r\n    }\r\n    modifier tokenIsNotDai(bytes32 _ticker){\r\n        require(_ticker != DAI, 'cannot trade DAI');\r\n        _;\r\n    }\r\n    constructor() public {\r\n        admin = msg.sender;\r\n    }\r\n    function getOrders(\r\n        bytes32 ticker,\r\n        Side side)\r\n    external\r\n    view\r\n    returns(Order[] memory) {\r\n        return orderBook[ticker][uint(side)];\r\n    }\r\n\r\n    function getTokens()\r\n    external\r\n    view\r\n    returns(Token[] memory) {\r\n        Token[] memory _tokens = new Token[](tokenList.length);\r\n        for (uint i = 0; i < tokenList.length; i++) {\r\n            _tokens[i] = Token(\r\n                tokens[tokenList[i]].ticker,\r\n                tokens[tokenList[i]].tokenAddress\r\n            );\r\n        }\r\n        return _tokens;\r\n    }\r\n    function addToken(bytes32 _ticker, address _tokenAddress) onlyAdmin() external{\r\n        tokens[_ticker] = Token(_ticker, _tokenAddress);\r\n        tokenList.push(_ticker);\r\n    }\r\n    // users need to be able to send deposit/withdraw tokens on our exchange\r\n    function deposit(uint amount, bytes32 ticker) external{\r\n        IERC20(tokens[ticker].tokenAddress).transferFrom(msg.sender, address(this),amount);\r\n        // use the Zeppelin SafeMath functions from now on\r\n        traderBalances[msg.sender][ticker] = traderBalances[msg.sender][ticker].add(amount);\r\n        //traderBalances[msg.sender][_ticker] += _amount;\r\n    }\r\n    function withdraw(uint amount, bytes32 ticker) tokenExists(ticker) external{\r\n        require(traderBalances[msg.sender][ticker] >= amount,'Insufficient tokens for this withdrawal');\r\n        IERC20(tokens[ticker].tokenAddress).transfer(msg.sender,amount);\r\n        traderBalances[msg.sender][ticker] = traderBalances[msg.sender][ticker].sub(amount);\r\n        //traderBalances[msg.sender][_ticker] -= _amount;\r\n    }\r\n    function createLimitOrder(bytes32 ticker, uint amount, uint price, Side side)\r\n        tokenIsNotDai(ticker) tokenExists(ticker) external{\r\n        // trader is going to use DAI to buy tokens, and will sell tokens for DAI\r\n        // DAI is kept in the traderBalances array just like any other token\r\n        // even though it is the token used to trade\r\n        if(side == Side.SELL){\r\n            // check the balance of the token that isn't DAI - bail if don't have enough of the tokens on\r\n            //  hand to sell the amount of the limit order\r\n            require(traderBalances[msg.sender][ticker] >= amount, 'token balance is too low');\r\n        }else{\r\n            // check the DAI balance - bail if not enough DAI to buy any more tokens\r\n            require(traderBalances[msg.sender][DAI] >= amount.mul(price), 'DAI balance is too low');\r\n        }\r\n        Order[] storage orders = orderBook[ticker][uint(side)];\r\n        orders.push(Order(nextOrderId,msg.sender,side,ticker,amount,0,price,block.timestamp));\r\n        // keep the order array sorted using Bubble Sort\r\n        uint i = orders.length - 1; // start at the bottom of the array\r\n        while(i < 0){\r\n            if(side == Side.BUY && orders[i-1].price > orders[i].price){// BUY stopping condition\r\n                break; // gets out of while loop\r\n            }\r\n            if(side == Side.SELL && orders[i-1].price < orders[i].price){ // SELL stopping condition\r\n                break;\r\n            }\r\n            Order memory tempOrder = orders[i-1];\r\n            orders[i-1] = orders[i];\r\n            orders[i] = tempOrder;\r\n        }\r\n        nextOrderId++;\r\n    }\r\n    function createMarketOrder(\r\n        bytes32 ticker,\r\n        uint amount,\r\n        Side side)\r\n    tokenExists(ticker)\r\n    tokenIsNotDai(ticker)\r\n    external {\r\n        if(side == Side.SELL){\r\n            require(traderBalances[msg.sender][ticker] >= amount, 'token balance is too low');\r\n        }\r\n        // get the other side of orders, i.e. if it's a BUY market order, get the list of SELL orders\r\n        Order[] storage orders = orderBook[ticker][uint(side == Side.BUY ? Side.SELL : Side.BUY)];\r\n        uint i;\r\n        uint remaining = amount;\r\n        while(i < orders.length && remaining > 0){\r\n            //uint available = orders[i].amount - orders[i].filled;\r\n            uint available = orders[i].amount.sub(orders[i].filled);\r\n            uint matched = (remaining > available) ? available : remaining;\r\n            //remaining -= matched;\r\n            remaining = remaining.sub(matched);\r\n            //orders[i].filled += matched;\r\n            orders[i].filled = orders[i].filled.add(matched);\r\n\r\n            emit NewTrade(nextTradeId,\r\n                orders[i].id,\r\n                ticker,\r\n                orders[i].trader, // trader that created order in the orderbook\r\n                msg.sender, // trader that is buying or selling\r\n                matched,\r\n                orders[i].price,\r\n                block.timestamp);\r\n\r\n            if(side == Side.SELL) {\r\n                // msg.sender put in the order; his token balance goes down(he sold them) and his DAI goes up\r\n                traderBalances[msg.sender][ticker] = traderBalances[msg.sender][ticker].sub(matched);\r\n                traderBalances[msg.sender][DAI] = traderBalances[msg.sender][DAI].add(matched.mul(orders[i].price));\r\n                // orders[i].trader is the one with the limit order in the order boot\r\n                // his tokens go up(he bought them) and his DAI goes down\r\n                traderBalances[orders[i].trader][ticker] = traderBalances[orders[i].trader][ticker].add(matched);\r\n                traderBalances[orders[i].trader][DAI] = traderBalances[orders[i].trader][DAI].sub(matched.mul(orders[i].price));\r\n            }\r\n            if(side == Side.BUY) { // the opposite of above\r\n                // sale may not go thru, msg.sender must have enough DAI to pay for this trade\r\n                require(\r\n                    traderBalances[msg.sender][DAI] >= matched.mul(orders[i].price),\r\n                    'dai balance too low for BUY trade'\r\n                );\r\n                traderBalances[msg.sender][ticker] = traderBalances[msg.sender][ticker].add(matched);\r\n                traderBalances[msg.sender][DAI] = traderBalances[msg.sender][DAI].sub(matched.mul(orders[i].price));\r\n                traderBalances[orders[i].trader][ticker] = traderBalances[orders[i].trader][ticker].sub(matched);\r\n                traderBalances[orders[i].trader][DAI] = traderBalances[orders[i].trader][DAI].add(matched.mul(orders[i].price));\r\n            }\r\n            nextTradeId++;\r\n            i++;\r\n        }\r\n        i = 0;\r\n        while(i < orders.length && (orders[i].filled == orders[i].amount)){\r\n            for(uint j = i; j < orders.length - 1; j++ ) {\r\n                orders[j] = orders[j + 1];\r\n            }\r\n            orders.pop();\r\n            i++;\r\n        }\r\n    }\r\n}\r\n",
  "sourcePath": "C:/Users/cawel/WebstormProjects/dex/contracts/Dex.sol",
  "compiler": {
    "name": "solc",
    "version": "0.6.12+commit.27d51765.Emscripten.clang"
  },
  "schemaVersion": "3.3.3",
  "updatedAt": "2021-03-17T19:27:17.104Z",
  "networkType": "ethereum",
  "devdoc": {
    "kind": "dev",
    "methods": {},
    "version": 1
  },
  "userdoc": {
    "kind": "user",
    "methods": {},
    "version": 1
  }
}